:020000040800F2
:10000000B1AA010000000000000000000000000094
:1000100000000000000000000000000000000000E0
:1000200000000000000000000000000000000000D0
:1000300000000000000000000000000000000000C0
:1000400000000000000000000000000000000000B0
:1000500000000000000000000000000000000000A0
:100060000000000000000000000000000000000090
:100070000000000000000000000000000000000080
:100080000000000000000000000000000000000070
:100090000000000000000000000000000000000060
:1000A0000000000000000000000000000000000050
:1000B0000000000000000000000000000000000040
:1000C0000000000000000000000000000000000030
:1000D0000000000000000000000000000000000020
:1000E0000000000000000000000000000000000010
:1000F0000000000000000000000000000000000000
:1001000000000000000000000000000000000000EF
:1001100000000000000000000000000000000000DF
:1001200000000000000000000000000000000000CF
:1001300000000000000000000000000000000000BF
:1001400000000000000000000000000000000000AF
:100150000000000000000000000000007370043088
:10016000170500001305C5FF8545F605637BB5003F
:1001700089816378B500170500001305C5002E9529
:1001800002859302002073A0027D970200009382F3
:1001900062E773907230972200009382E2127390AC
:1001A000C27E73E0C07E972200009382A209739002
:1001B000523097110018938161AB17810018130119
:1001C00061E4174500001305A58597050018938580
:1001D00065E3170600181306262A63FAC500832272
:1001E000050023A0550011059105E3EAC5FE17059A
:1001F000001813056528970500189385A5296377CE
:10020000B500232005001105E36DB5FE73F0023241
:10021000173500001305255D97300000E780E05892
:1002200097300000E780C05F97100000E7804039FA
:100230000145814597000000E78040211733000009
:100240006700A35701A073E00232828073F002328C
:0402500082800000A8
:100280000A50726F6772616D2068617320657869CA
:10029000746564207769746820636F64653A000050
:1002A000307800006E6D690A0000000074726170A1
:1002B0000A00000000000000000000000040AF4005
:1002C000AE47E17A14AEEF3F7B14AE47E17A843F4C
:1002D0008E2B0000DE2A0000E42A0000DE2A000047
:1002E000802B0000DE2A0000E42A00008E2B000094
:1002F0008E2B0000802B0000E42A0000C42A00009E
:10030000C42A0000C42A0000E82A0000942F00003C
:10031000942F0000AC2F00008E2F00008E2F0000C5
:100320003A300000AC2F00008E2F00003A30000061
:100330008E2F0000AC2F00008C2F00008C2F0000AF
:100340008C2F00003A300000000102020303030377
:100350000404040404040404050505050505050555
:100360000505050505050505060606060606060635
:10037000060606060606060606060606060606061D
:100380000606060606060606070707070707070705
:1003900007070707070707070707070707070707ED
:1003A00007070707070707070707070707070707DD
:1003B00007070707070707070707070707070707CD
:1003C00007070707070707070808080808080808B5
:1003D000080808080808080808080808080808089D
:1003E000080808080808080808080808080808088D
:1003F000080808080808080808080808080808087D
:10040000080808080808080808080808080808086C
:10041000080808080808080808080808080808085C
:10042000080808080808080808080808080808084C
:10043000080808080808080808080808080808083C
:1004400008080808080808085971A2D4A6D2CECE18
:10045000D2CCD6CADAC8DEC6E2C4E6C2EAC06EDED4
:1004600086D6CAD097200000E780609FB7070008B3
:1004700003AB072C83AB472CA97DB707000803AA61
:10048000872C83AAC72C2D6C93870D80B704C0FFDF
:1004900081490144372D0140B70C0080130CFC3F0B
:1004A0003EC6938404138327CD4497100000E78051
:1004B0000029AA8D2C08481097200000E780C088EA
:1004C000025533898D406E8497300000E780E0123A
:1004D000AA8D624597300000E7802012EE859710C4
:1004E0000000E780C010025597300000E780E01060
:1004F000AA8D72453345950197300000E780E00FE3
:10050000EE8597100000E780800EAA8D6355AC0041
:10051000B247B30DF500125597300000E780E00DAB
:10052000330525034205334595024E95973000006B
:10053000E780E0E95A86DE8697300000E780209E5B
:100540002A896E85AE8997300000E78040E85286A0
:10055000D68697300000E780809C2A86AE864A8542
:10056000CE8597200000E78040DD97300000E780CF
:10057000C0DFAA893305A040060597200000E78068
:1005800000C715B7970700F89387C7A789CB17351A
:100590000000130545251733000067000321828002
:1005A0004111B727014006C693870740630BF5004A
:1005B000B7370140938707806303F502B2404101DA
:1005C00082801305903097000000E7802055B240EC
:1005D000130590304101170300006700A355130570
:1005E000A03097000000E7806053B2401305A030B0
:1005F0004101170300006700E353B727014003A739
:100600004740B706F1FFFD16758F23A2E74003A709
:100610004740598D23A2A740828093F705100DC64D
:1006200099EF93F7054089C75C4193E707405CC1A8
:10063000898985CD1C4593E727001CC582805C41D4
:1006400093E707105CC1F1BF89C75C4193F7F7EFEF
:100650005CC193F7054089C75C4193F7F7BF5CC164
:10066000898981C51C45F59B1CC582801C4599C59F
:10067000056713070780D98F1CC582807D77130714
:10068000F77FF98F1CC582801C45858B89E71C4547
:1006900093E717001CC582801C451307850093E76C
:1006A00087001CC51C43A18BF5FF1C4593E7470041
:1006B0001CC51C43918BF5FF828085476385F5023D
:1006C00089476391F5021C5D3707D0FF7D17F98FCD
:1006D0001CDD1C5D7D16520637073000798E5D8E5D
:1006E00010DD828082805C55370710FF7D17F98FFF
:1006F0005CD55C557D1652063707F000798E5D8E0D
:1007000050D58280954763E2B70493972500BE9544
:100710005859FD47B397B70093C7F7FFF98FB31543
:10072000B600DD8D4CD9A54763E6C70493171600C4
:100730003E9618499D47B397C70093C7F7FFF98FB7
:100740003396C6005D8E10C98280AD4763E7B7045B
:10075000E91593972500BE951859FD47B397B70043
:1007600093C7F7FFF98FB315B600DD8D0CD9A547F8
:10077000E3FEC7FAC54763E1C7025916131716000F
:100780004C453A969D47B397C70093C7F7FFED8F47
:100790003396C6005D8E50C58280BD47E3E5B7F84D
:1007A000D11593972500BE955855FD47B397B700CF
:1007B00093C7F7FFF98FB315B600DD8D4CD5A5B7FC
:1007C0008547638FF5008947639BF5001C45657776
:1007D0007D17F98F1CC51C455D8E10C582808280F7
:1007E0001C453707F2FF7D17F98F1CC51C455D8E30
:1007F00010C5828093F715000DC281EB898989CDE0
:100800001C452167D98F1CC582801C453707100005
:100810008989D98F1CC5EDF5828099C71C4537079A
:10082000F0FF7D17F98F1CC58989FDD51C456177BF
:100830007D17F98F1CC5828093F7150091C71C4561
:1008400037074000D98F1CC5898991C51C453707DA
:100850002000D98F1CC5828093F7050193F8F5001D
:1008600099C3B3E8C8008147854E3D4E930F80027F
:10087000930280042143139627003397FE00331818
:10088000CE00758F1348F8FF3396C80001CF032FB1
:1008900005003378E80133660601638FF505638947
:1008A000550410C18507E39867FC854E3D4E930FB4
:1008B0008002930280044143139727000117339667
:1008C000FE003318EE00758E1348F8FF3397E800EA
:1008D00001CE032F45003378E80133670701638FAA
:1008E000F5016389550058C18507E39767FC82804D
:1008F00018C945BF10C9C5BF58C965B750C9E5B7C4
:10090000411126C2AA84094522C44AC006C62E84C3
:10091000328997000000E7800028B7470F003707AB
:100920003803938707241307F797B357F502930605
:1009300060036363A700BE86D84061661306066A3B
:10094000137707FC558FD8C06361860485071307AA
:1009500050036377F702930760039CD00604914726
:1009600033558502C04C6373F50011455205518122
:10097000418DB2402244C8CC024992444101828058
:1009800009476363F70E98D0D1BFB7270600938756
:1009900007A863EB87049307C012B386F602930798
:1009A000803EB3D6F602850694D06304090A9315F7
:1009B0001400A2958E052E9433558502DC4C1167E8
:1009C000D98FDCCC9317450199E313651500DC4CF6
:1009D0002167B240D98FDCCCC04C0249418D224402
:1009E000C8CC92444101828093974600958F8E0730
:1009F0009306803EB3D7D70285079CD063000904D5
:100A000093151400A2958E052E9433558502DC4C67
:100A10001167D98FDCCCDC4C2167B240D98FDCCC9C
:100A2000C04C0249418DC8CC83A70409224493E7F6
:100A3000170023A8F408924441018280DC4C7177AE
:100A4000931514007D172E94F98F33558502DCCC55
:100A5000D9B7DC4C7177931514007D172E94F98F5C
:100A600033558502DCCCB9BF9CD0CDBD85476387AB
:100A7000F5001C4193F7F7BF1CC182801C4193E72E
:100A800007401CC18280795793E715006314E60084
:100A900093F7E5FF1CC982801C4193E717001CC136
:100AA00082801C4193E707101CC182801C4193E7A0
:100AB00007201CC182800CC9828008491375F50F7C
:100AC000828093D7650093F7F73F3E9508413355F1
:100AD000B50005898280930710506380F50213D713
:100AE00065001377F73F3A9518418547B397B700EC
:100AF00093C7F7FFF98F1CC182805C491C4D82802F
:100B0000B7170240135765003E9714438547B397C4
:100B1000A700D58F1CC38280B7170240135765000A
:100B20003E9714438547B397A700D58F1CC3828097
:100B3000B7170240135765003E9714438547B39794
:100B4000A70093C7F7FFF58F1CC38280B717024039
:100B5000DC433747FFEF7D179546F98F6300D502D9
:100B600063EBA6000D476364A7003A05C98F3717EA
:100B700002405CC382801D47E31BE5FE31773A05E6
:100B8000798D5D8DB7070010C98F371702405CC3A0
:100B90008280B707030437070809011193871720DC
:100BA000130767703ECC3EC23EC602C802CA3ACEA8
:100BB00002C002C4B7160240D842B7177A000946ED
:100BC00009830D8B93870720630DC70437170240F5
:100BD00050435443584311820C103D8A2E960346CD
:100BE00006FFA1822D839D8A1D8B2E97AE96054808
:100BF00033D6C70083C506FE034787FE6301050B96
:100C000011CD8946B357B600630AD5007515133563
:100C10001500B357E6003305A040E98F3E85056116
:100C20008280D8421316F700635F0606D856131663
:100C3000F70063580602D856DC56454693564700DF
:100C4000A183BD8BBD8A1387270085066313C70068
:100C50005147B7177A0093870720B3D7D702B387D6
:100C6000E702371702405857B71602403D8B050779
:100C7000B3D7E702D842D4424983139626003D8B6E
:100C800063410604BD466300D7040907631ED7020B
:100C9000139717003E9706078583BA9705BFB2875B
:100CA0003E8505618280B7160240D842D442B7170C
:100CB0003D00498313962600938707903D8BE353AD
:100CC00006FC136707010507B307F70201B74111D7
:100CD000B717004006C6138707C0630DE5046371AC
:100CE000A702138707406305E5063737014013075E
:100CF00007C0630DE5066309F508B2404101828033
:100D00003707004093060740630ED5089387078096
:100D10006308F50AE313E5FE1305004097000000A1
:100D2000E780C0DFB2401305004041011703000017
:100D3000670043E01305304097000000E78000DEC5
:100D4000B24013053040410117030000670083DE05
:100D50001305504097000000E78040DCB2401305C7
:100D600050404101170300006700C3DC1305B03099
:100D700097000000E78080DAB2401305B0304101EF
:100D800017030000670003DB1305404097000000D5
:100D9000E780C0D8B240130540404101170300006E
:100DA000670043D91305104097000000E78000D783
:100DB000B24013051040410117030000670083D7BC
:100DC0001305204097000000E78040D5B24013058E
:100DD00020404101170300006700C3D5C167FD171C
:100DE00023200500231205001CC523160500230738
:100DF0000500828083D7050003D745001376F5BF31
:100E00001CD5B7370140938707C0418B6306F504B3
:100E1000FD779387F73FE98FB7060040638ED702CF
:100E20001C41B7160040BD9B1CC11C415D8F18C101
:100E30009C455CD5630DD600184183D7C500137758
:100E4000F7CF18C1184193F70730D98F1CC15C49FF
:100E500093E717005CC98280144183D725003718B7
:100E6000004093F6F6F814C1144193F70706D58FA6
:100E70001CC11C415D8F18C19C455CD5E30906FD72
:100E8000184183D7C500B73601401377F7CF18C193
:100E9000104193F70730138706C0D18F1CC1E318A8
:100EA000E5FA83C7E50023A8F6C25C4993E717007B
:100EB0005CC982801C4193E717001CC182801C41E1
:100EC00093E707081CC182804CD5828085476388E0
:100ED000F5007C4161777D17F98F7CC182807C4170
:100EE0002167D98F7CC18280231005002311050062
:100EF0002312050023130500231405002315050004
:100F0000828085476385F50CD9C589476387F504D9
:100F10008D476393F5041C517D777D17F98F1CD1A4
:100F2000835706001851F976B207D98F1CD1185192
:100F3000FD1683574600758F18D11451B207373705
:100F40000140D58F1CD1930707C0630AF51E5C4D85
:100F500093F7F7CF5CCD828082801451035706004F
:100F60008357460093F6F6EF14D114512207A207D7
:100F7000558F18D1145137370140930507C093F6A8
:100F8000F6DF14D11451D58F1CD16301B5145C4D1B
:100F9000F19B5CCD82801C518356060003574600AE
:100FA000F99B1CD103280502B7370140938507C080
:100FB000B3E6060114D11451F59A14D11451558F8A
:100FC00018D16307B50A1C4DF19B1CCD82801451CA
:100FD0000357060083574600BD9A14D114511207D7
:100FE0009207558F18D1145137370140930507C028
:100FF00093F6F6FD14D11451D58F1CD16307B500BB
:101000001C4D93F7F7CF1CCD82800C5183562600E0
:101010008357660093F5F5FB0CD10C5192069207AD
:10102000CD8E14D10C518356860093F5F5F70CD173
:101030000C518A06CD8F1CD1832547C08357A6004B
:1010400093F5F5BF2322B7C0032647C08A07D18E88
:101050002322D7C0832647C07D761306F67FF18E04
:101060002322D7C0832647C0D58F2322F7C049BF8C
:10107000185103582600835566006D9B18D18328AC
:101080000502835686000357A60033681801232003
:10109000050310515D9A10D11051D18D0CD103A6CA
:1010A00047C01376F6EF23A2C7C003A647C0D18E70
:1010B00023A2D7C083A647C093F6F6DF23A2D7C0EA
:1010C00083A647C0558F23A2E7C0F5BD0C518357B7
:1010D0002600FD7693F5F5BF0CD10C51A20793883D
:1010E000F67FCD8F1CD1032805029385F6FF835729
:1010F0006600B376180114D103280502A2078356AF
:101100008600B3E707011CD1832747C09206FD8DF7
:101110002322B7C0832547C08357A6007976CD8E9A
:101120002322D7C0832647C07D169207F18E232243
:10113000D7C0832647C0D58F2322F7C089BD832718
:1011400047C0F176FD16F58F2322F7C0835786003E
:10115000832647C09A07D58F2322F7C0CDBB85478A
:101160006384F502A1C58947638AF5028D47639CB4
:10117000F5005C4D65777D17F98F5CCD5C4D2206DF
:101180005D8E50CD828082801C4D65777D17F98FF2
:101190001CCD1C4D22065D8E10CD82805C4D93F7D8
:1011A000F7F85CCD5C4D5D8E50CD82801C4D93F781
:1011B000F7F81CCD1C4D5D8E10CD82808547638C69
:1011C000F50091CD8947638AF5008D476394F5005A
:1011D00030C18280828010DD828050DD828050D9D3
:1011E000828085476385F502A9C58947638CF5022E
:1011F0008D47639DF5005C4D7D771307F77FF98F71
:101200005CCD5C4D22065D8E50CD828082801C4D6F
:101210007D771307F77FF98F1CCD1C4D22065D8E5D
:1012200010CD82805C4DDD9B5CCD5C4D5D8E50CDE4
:1012300082801C4DDD9B1CCD1C4D5D8E10CD8280AF
:1012400093F5F51F4CC1828093D7650093F7F73F64
:101250003E9508413355B50005898280B717024095
:101260009843B706FFE0B1061367170098C3D84349
:101270003706F7EA7D16758FD8C39843B706F7FE91
:10128000FD16758F98C39843B706FCFFFD16758F42
:1012900098C3D843B70601DFFD16758FD8C323A6C0
:1012A000070294433707FF00C165F18E94C398C7C6
:1012B00098439386F5FF371602404D8F98C311A0CF
:1012C00099C61C42FD161397E700E35B07FEB717AC
:1012D000024098439316E70063D0060AD8433706C6
:1012E000C4DF7D16D8C3D843B7160240D8C3D8434D
:1012F00013670740D8C3D843718FD8C3D843370684
:101300002920518FD8C3D8573D76718FD8D7D85759
:101310004166130616F1518FD8D79843370600045B
:10132000518F98C39C4213974700E35D07FE9C4290
:101330003706001037170240D18F9CC21C4393968A
:101340002700E3DD06FE144337060001B71702400D
:10135000D18E14C3984393166700E3DD06FED8438D
:10136000B7160240719BD8C3D84313672700D8C370
:10137000DC42A18BF5DF828001A0B70700089387CC
:10138000072803AF070083AE470003AE870003A31F
:10139000C70083A8070103A84701944F03D7C701DB
:1013A00083C7E7017971794622D48A852A84094561
:1013B00006D67AC076C272C41AC646C842CA36CCAD
:1013C000231EE100230FF10097200000E780E04B8F
:1013D000A285094597000000E780C00AB70500080C
:1013E00005469385052B094597200000E780E049D5
:1013F00001A0411122C43744014026C29375F50F64
:10140000AA841305048006C6130404809700000014
:10141000E78040E39D45228597000000E78000E3D8
:1014200075D9B2402244268592444101828001113F
:101430004EC606CE22CC26CA4AC8B28915C22E8410
:101440003389C500A9440345040005049700000042
:10145000E78060FA8347F4FF638C9700E31524FF6D
:10146000F24062444E85D2444249B24905618280CD
:10147000354597000000E78000F8E31624FDCDB75E
:10148000797156CAAE8AB705000809469385052AC0
:1014900022D426D24AD04ECE52CC06D62A8A7144C5
:1014A00097200000E780603EBD492549F15405A022
:1014B00093F7F60F711405469305F1005285A307C3
:1014C000F10097200000E780403C630F9402B3973F
:1014D0008900B3F75701B3D7870093F7F70F9386C7
:1014E000070313877703E375F9FC9377F70F7114FC
:1014F00005469305F1005285A307F10097200000EF
:10150000E780A038E31594FCB2502254925402595B
:10151000F249624AD24A45618280B70700D1D84376
:101520008843CC43E39DE5FE8280370700D2230049
:1015300007001205B71700D2A30507003E9563F711
:10154000A70023A00700C107E3EDA7FE8280F327D1
:10155000503093F707FC93E7370073905730828041
:10156000B7050008411115469385452A054506C66D
:1015700097200000E7806031054597000000E78074
:1015800000E041119347F5FF22C406C613974701B7
:101590002A8405C3B705000815469385C52A054565
:1015A00097200000E780602E228597000000E780EA
:1015B00000DD97000000E780E0FAE9BF411106C6B0
:1015C00097000000E780C0C9130570059700000070
:1015D000E780E0F597000000E780A0F7B240410106
:1015E00017F3FFFF670063C682802A8663C2050681
:1015F000634905042E8732880145B706002093868B
:10160000060081473D4E11A8198E9A95850746958B
:10161000910632882E876385C70383A8060033535B
:10162000F8403357F740E34100FF3A96B3856540F1
:10163000850733051541910632882E87E39FC7FD44
:1016400082808DC12A885D652E871305058075B758
:10165000E352A0FA3308A0402D653307B0401305CC
:10166000054061BF01450147328841BF79714AD0C9
:101670004ECE5EC606D622D426D252CC56CA5AC800
:1016800062C466C2AA8B97000000E78040E92A89FD
:10169000AE8997000000E78080E82A84AE84631456
:1016A000A900E388B9FEB707000803A9872B83A91F
:1016B000C72B370B002097000000E78040E6AA8781
:1016C000018DB3B7A700858D9D8D97200000E78021
:1016D00060DC2A8A03258B46AE8A97200000E780CB
:1016E00000D64A86CE8697100000E780A0242A8C78
:1016F0005E85AE8C97200000E78060D42A86AE8697
:101700006285E68597200000E78060812A86AE86A4
:101710005285D68597100000E7802076E34D05F8C6
:10172000B250225492540259F249624AD24A424B70
:10173000B24B224C924C45618280411106C622C4B4
:1017400026C297000000E78080DD97200000E78038
:1017500060D4B707000803A6872B83A6C72B971072
:101760000000E780C07BB70700202A8403A58746D6
:10177000AE8497200000E78080CC2A86AE86228542
:10178000A68597100000E780E01A97200000E78008
:10179000C0BDB240224492444101828079714AD056
:1017A0004ECE5EC606D622D426D252CC56CA5AC8CF
:1017B00062C466C2AA8B97000000E78040D62A89DF
:1017C000AE8997000000E78080D52A84AE84631438
:1017D000A900E388B9FEB707000803A9872B83A9EE
:1017E000C72B370B002097000000E78040D3AA8763
:1017F000018DB3B7A700858D9D8D97200000E780F0
:1018000060C92A8A03258B46AE8A97200000E780AC
:1018100000C34A86CE8697100000E780A0112A8C6C
:101820005E85AE8C97200000E78060BA2A86AE867F
:101830006285E68597100000E780606E2A86AE8696
:101840005285D68597100000E7802063E34D05F8A8
:10185000B250225492540259F249624AD24A424B3F
:10186000B24B224C924C45618280011122CC004146
:1018700026CA4AC822854EC652C406CEAE84B28954
:1018800036893A8A97F0FFFFE780E0219305005000
:10189000228597F0FFFFE78000236DD986047956F3
:1018A000A685228597F0FFFFE780201E9305105044
:1018B000228597F0FFFFE78000216DD99305105036
:1018C000228597F0FFFFE780402193057050228525
:1018D00097F0FFFFE780201F6DD9CE85228597F016
:1018E000FFFFE780801D93057050228597F0FFFF72
:1018F000E780601D6DD9228597F0FFFFE780A01A71
:1019000093050050228597F0FFFFE780C01B6DD93B
:101910000546A685228597F0FFFFE780001793050F
:101920001050228597F0FFFFE780E0196DD99305ED
:101930001050228597F0FFFFE780201A8545228509
:1019400097F0FFFFE780C0129309F9FF8144630815
:1019500009026387990493056050228597F0FFFF81
:10196000E78060166DD9228597F0FFFFE78020158C
:10197000B3079A002380A7008504E39C24FD2285F9
:1019800097F0FFFFE780C0121C4093F70720EDFFA0
:10199000F2406244D2444249B249224A05618280FF
:1019A0008145228597F0FFFFE780800C6DB701111C
:1019B00022CC004126CA4AC84EC652C406CE2E8A40
:1019C0003289B689BA8493051060228597F0FFFFAB
:1019D000E780600F6DF9228597F0FFFFE780A00C8C
:1019E00093050050228597F0FFFFE780C00D6DD969
:1019F000795693151A00228597F0FFFFE780E008DB
:101A000093051050228597F0FFFFE780C00B6DD93A
:101A100093051050228597F0FFFFE780000C930597
:101A20007050228597F0FFFFE780E0096DD9CA85E5
:101A3000228597F0FFFFE7804008930570502285CC
:101A400097F0FFFFE78020086DD933893401638464
:101A50000902850483C5F4FF228597F0FFFFE78024
:101A6000C00593057050228597F0FFFFE780A00521
:101A70006DD9E31099FE228597F0FFFFE7804003C0
:101A80001C4093F70720EDFFF2406244D2444249E4
:101A9000B249224A056182804111E16522C40146B2
:101AA0009385056A3704002006C626C2232AA44669
:101AB000AA8497F0FFFFE780E0E4268597F0FFFF18
:101AC000E780C0FD930644472244B2409244371653
:101AD0000008B7250008372500081306C679938546
:101AE000E59A1305A58641011703000067008300EE
:101AF000011122CC3704002013048447AA874CC06C
:101B0000368510C41CC054C4380006CE26CA85468B
:101B100013065007930580068297034781009307B9
:101B200000077D556313F71048445C40130800F824
:101B3000780085461306B00693058006230601014A
:101B400082971C441305400682978307810063DF58
:101B500007001C404844380085461306B00693052C
:101B60008006829783078100E3C507FE1C441305A6
:101B700040068944829748445C4025482306010179
:101B8000780085461306B006930580068297484480
:101B90005C40780085466546930580062306010073
:101BA000829748445C4078008546694693058006E4
:101BB00023069100829748445C406148780085463E
:101BC0006D469305800623060101829748445C40D8
:101BD0004148230601017800854671469305800639
:101BE000829748445C407800854675469305800698
:101BF00023069100829748445C4013082003780034
:101C0000854613067003930580062306010182971B
:101C100048445C4005472306E100854678001306EA
:101C200080039305800682970545F2406244D244C2
:101C300005618280B707002001119387874722CC76
:101C400003A807002A84C84706CE99461306B003A6
:101C500093058006380002988317810013D7870008
:101C6000A303F1002303E1000315610097200000A6
:101C7000E780A09E8317A10008C013D78700A303A5
:101C8000F1002303E1000315610097200000E780C5
:101C9000C09C8317C10048C013D78700A303F1007D
:101CA0002303E1000315610097200000E780E09A1C
:101CB00008C4F2406244054505618280B7070020F0
:101CC00001119387874722CC03A807002A84C847BD
:101CD00006CE994613063004930580063800029814
:101CE0008317810013D78700A303F1002303E100CA
:101CF0000315610097200000E78020968317A1005C
:101D000008C013D78700A303F1002303E1000315E4
:101D1000610097200000E78040948317C10048C00D
:101D200013D78700A303F1002303E100031561002B
:101D300097200000E780609208C4F24062440545A5
:101D400005618280411122C42A842E8506C697002F
:101D50000000E78060EE228597000000E78040F6F3
:101D6000B240224405454101828041111305306093
:101D700006C622C497F0FFFFE780C0D837150140A0
:101D800085460D468145130505C097F0FFFFE780A6
:101D9000E0AC1305906097F0FFFFE780A0D60D45FB
:101DA0003724014097F0FFFFE78080DA13050440F5
:101DB00097E0FFFFE780007F014597F0FFFFE78096
:101DC0000084054613050440894597F0FFFFE7802E
:101DD000008513050440814597F0FFFFE7804089A7
:101DE000130504400546854597F0FFFFE780208DE9
:101DF0008946130504402146814597F0FFFFE7809F
:101E0000A0901305044037060E00854597F0FFFFAC
:101E1000E780409B854505461305044097F0FFFF8A
:101E2000E780809D1305044097F0FFFFE780008660
:101E3000054597000000E780A0831305044097F054
:101E4000FFFFE780A085130504402244B24085458A
:101E5000410117F3FFFF6700639E411106C697001B
:101E60000000E780800697000000E780802A1305C5
:101E7000306097F0FFFFE780E0C81305507197F0DE
:101E8000FFFFE78020C8371501409306000C0D4680
:101E9000F145130505C097F0FFFFE780209C3755FB
:101EA00000401305054097000000E78020BF970021
:101EB0000000E780C0EBB240130500194101170391
:101EC00000006700831B79711305206006D697F028
:101ED000FFFFE78020C31305006097F0FFFFE78056
:101EE00060C2371501409D460D46E145130505804A
:101EF00097F0FFFFE78080961305007097F0FFFFD3
:101F0000E78040C03705004097F0FFFFE78060DCC6
:101F1000080897F0FFFFE780A0EC0C089307B006D5
:101F2000370500403EC8231A010002CC231E0100E1
:101F3000230F010097F0FFFFE78000EC480097F0C7
:101F4000FFFFE780A0FA8547500081453705004034
:101F50003EC202C402C697F0FFFFE780C0FA5000FD
:101F600085453705004097F0FFFFE780C0F9500036
:101F700089453705004097F0FFFFE780C0F8956579
:101F80009385F5E13705004097F0FFFFE78000F407
:101F9000500081453705004097F0FFFFE780A0F62D
:101FA000500085453705004097F0FFFFE780A0F51A
:101FB000500089453705004097F0FFFFE780A0F407
:101FC000014681453705004097F0FFFFE780401F3D
:101FD0001306000681453705004097F0FFFFE780B4
:101FE0004018014681453705004097F0FFFFE78024
:101FF000801F014685453705004097F0FFFFE780C9
:10200000201C1306000685453705004097F0FFFFAA
:10201000E7802015014685453705004097F0FFFF12
:10202000E780601C1306803E89453705004097F025
:10203000FFFFE780E01813060006894537050040DA
:1020400097F0FFFFE780E011014689453705004022
:1020500097F0FFFFE78020193705004097F0FFFF5A
:10206000E78020E63705004097F0FFFFE780C0E4F7
:10207000B25045618280411122C41306007D2A843A
:1020800081453705004006C626C297F0FFFFE7806E
:1020900020131306007D85453705004097F0FFFFAC
:1020A000E78000128564138584BB97F0FFFFE7800B
:1020B000205C1306803E81453705004097F0FFFF06
:1020C000E78000101306803E85453705004097F0F5
:1020D000FFFFE780E00E138584BB97F0FFFFE780EA
:1020E00020591304843E228681453705004097F02D
:1020F000FFFFE780E00C22862244B24092448545EF
:1021000037050040410117F3FFFF6700630B79714A
:102110001305206006D622D497F0FFFFE780809E4B
:102120001305B06097F0FFFFE780C09D37150140B1
:10213000930600100D46E1451305058097E0FFFF6B
:10214000E780C071373401400C08130504C09307C1
:10215000B0063EC8231A010002CC231E0100230F43
:10216000010097F0FFFFE78020C985475000130565
:1021700004C081453EC202C402C697F0FFFFE7805B
:1021800080D89565130504C09385F5E197F0FFFFAE
:10219000E780C0D3130504C013060006814597F0FD
:1021A000FFFFE78000FC130504C00146814597F05E
:1021B000FFFFE78040031306803E130504C08145FE
:1021C00097F0FFFFE780C0FF130504C0854597F037
:1021D000FFFFE780E0CF130504C097F0FFFFE78023
:1021E000A0CDB250225445618280131625002A9654
:1021F0000606218685671306A65A9387E79263D35E
:10220000C7003E86930760226354F60013066022DF
:10221000373501408145130505C017F3FFFF6700FF
:1022200023FA000000000000000000000000000091
:10223000000000000000000000000000000000009E
:102240005D7106C012C216C41AC61EC82ACA2ECC98
:1022500032CE36D03AD23ED442D646D872DA76DC86
:102260007ADEFEC0F322103496C0F322003096C20C
:10227000F322407C96C4732520348A8597F0FFFFB3
:10228000E780603086427390123496427390023039
:10229000A6427390427C82401242A2423243C24321
:1022A0005245E245724682561257A2573258C258DA
:1022B000525EE25E725F864F616173002030000003
:1022C000000000005D7106C012C216C41AC61EC806
:1022D0002ACA2ECC32CE36D03AD23ED442D646D8B6
:1022E00072DA76DC7ADEFEC073D0E87E7350F97E57
:1022F00073D0B97EF390D07E73700430B642739081
:10230000427CA642739012349642739022348240EB
:102310001242A2423243C2435245E24572468256BD
:102320001257A2573258C258525EE25E725F864F11
:10233000616173002030370810007D18B378B80051
:102340008E089357D501011113D745013378D80072
:10235000B3E7170193D846010E0826CA4AC89374FA
:10236000F77F93F8F87F1357D60106CE22CC4EC6DE
:1023700013D9F501FD82336707010E050E06338878
:1023800014416316D9226351000F63980802B366A3
:10239000C700638B06569305F8FF89E92A96333503
:1023A000A600BA97AA9732858544B1A89306F07F14
:1023B000631DD8009304F07F79AA9306F07F638CA5
:1023C000D418B7068000558FC2859306800363C971
:1023D000B608FD4663C0B606130800023308B840CD
:1023E000B3160701B358B60033160601B3E616015B
:1023F0003336C000558E3357B7002A963E97B33711
:10240000A600BA9732851397870063560714850490
:102410001307F07F6389E448B70680FFFD16FD8E41
:102420009355150005899397F6014D8D5D8D93D7D2
:10243000160015A2938605FE93080002B356D70036
:1024400001486388150113080004B305B840331828
:10245000B7003366C8003336C000558E014771BFE0
:10246000598E3336C000DDBF630B080AB385984030
:102470008DE4B3E6A700638F06409386F5FF99E6E7
:102480003295BA973336C500B29739BF1308F07F3B
:10249000639D0501BA87328531BF9306F07FE38BD8
:1024A000D8FEB7068000D58FAE869305800363C43F
:1024B000D506FD4563CBD502130800023308D8408A
:1024C0003353D500B395070133150501B3E5650016
:1024D0003335A0004D8DB3D6D7003295B387E600D3
:1024E0003336C500B297C68439BF938506FE130301
:1024F0000002B3D5B70001486388660013080004E2
:10250000B306D8403398D7003365A8003335A00010
:102510004D8D8146D9B75D8D3335A000DDBF9386E3
:10252000140093F5E67FBDE1B3E6A700A9E4638755
:102530000636B366C70085C22A96BA973335A60019
:10254000AA9713978700328563570700370780FFE4
:102550007D17F98F85441377750063080734137767
:10256000F50091466303D7349306450033B5A600C2
:10257000AA9736851DAE99DE598EE30D06E2014914
:10258000B707400001459304F07F05A69305F07F4F
:102590006389B6302A963E97B337A6003E97131547
:1025A000F7010582518D93571700B6846DB76356B6
:1025B000000D63910808B366C7006387063493056E
:1025C000F8FF91E93306C5403335C500998F898FEF
:1025D00032858544B1A09306F07FE30DD8DC9306E5
:1025E000800363C8B608FD4663CFB6041308000233
:1025F0003308B840B3160701B358B60033160601C6
:10260000B3E616013336C000558E3357B700330694
:10261000C5403387E740B337C500B307F74032857D
:1026200013978700E35907F2370480007D147D8CEF
:10263000AA8975A29306F07FE38FD4F0B7068000D5
:10264000558FC28569BF938605FE93080002B35675
:10265000D70001486388150113080004B305B8408A
:102660003318B7003366C8003336C000558E0147B3
:1026700079BF598E3336C000DDBF6304080C338840
:10268000984095E8B3E5A700638205289305F8FF15
:1026900091E93305A640B307F7403336A600918F82
:1026A000368905BF1303F07F631F6800BA87328540
:1026B0009304F07F7DA09305F07FE389B8FEB70512
:1026C0008000CD8FC285130880036348B8067D481B
:1026D000634EB802130300023303B340335EB50008
:1026E00033986700331565003368C8013335A0009F
:1026F0003365A800B3D5B7003305A640B307B7408C
:102700003336A600918FC684368919BF138805FE1B
:10271000130E000233D8070101436388C501130378
:102720000004B305B3403393B7003365A3003335DA
:10273000A0003365A8008145C1B75D8D3335A00089
:10274000DDBF9385140093F5E57FB5E533E8A70079
:10275000B365C700B1E463180800638D051ABA8732
:1027600032853689CDBBE38805DE3308C540B385A5
:10277000E740B3380501B385154113948500635ACA
:1027800004003305A640B307F7403336A600918F07
:10279000C9BF3365B80063030518AE87428565BBC2
:1027A00063180800638E0516BA873285368919B119
:1027B000E38205C0E9B3B309C540B33535013384BD
:1027C000E7400D8C9315840063D90506B309A64034
:1027D000B307F740333636013384C740368925C402
:1027E000228597100000E78080F8130785FFFD47DA
:1027F00063C3E70693070002998F3314E400B3D74D
:10280000F9005D8C3395E90063409708058F9307C5
:102810001700FD4663C7F604130700021D8F3356E9
:10282000F500B316E4003315E500D18E3335A00072
:10283000558DB357F400814439BB33E5890045F128
:1028400081478144D1A84E8597100000E78020F28F
:102850001305050259BF130485FD33948900014512
:1028600065B70517130600023357E40081466387F6
:10287000C700930600049D8EB316D400558D3335E2
:10288000A000598D814745BFB70780FFFD17998C80
:10289000E18FD1B1BA873285AE8475B9BA873285F6
:1028A0005DB99304F07F8147014513978700635B0F
:1028B000070085041307F07F6389E406370780FF6C
:1028C0007D17F98F1397D7010D81598D1307F07F6D
:1028D0008D836399E4005D8D814709C5B7070800C2
:1028E0000145014913F7F47FB2075207F2406244F1
:1028F000B1839315F901D98F33E7B700D244424928
:10290000B249BA8505618280C284B1B1BA87328585
:10291000C28481BD81470145014941BF8147EDBF67
:1029200001450149B7074000B9B98147014559BF81
:10293000797113D8450126D24ECE52CC5AC85EC604
:102940009394C50006D622D44AD056CA1378F87F8D
:102950002A8BB28B368AB18093D9F50163040808BB
:102960009307F07F630EF80C935AD5018E04B3E4FD
:102970009A00B70A8000B3EA540113143500130912
:1029800018C0014B13554A019314CA001378F57F00
:10299000B180135AFA016308080C9307F07F6301B2
:1029A000F8121395340093D7DB015D8DB7048000D6
:1029B000C98C139F3B00130518C0814713172B00C8
:1029C0005D8F7D17B94633C649013308A94063EBD3
:1029D000E61097E6FFFF9386E68F0A0736971843BF
:1029E00036970287B3EAA40063860A068DCC268553
:1029F00097100000E780A0D7930755FF7147634BFE
:102A0000F702F54A130485FFB38AFA40B3948400B1
:102A1000B35A5B01B3EA9A0033148B001308D0C099
:102A20003309A840B9BF97100000E78040D41305D0
:102A30000502D9B7930485FDB31A9B000144F9BF81
:102A4000B3EAA400638C0A002A84A68A1309F07FE3
:102A50000D4B0DBF01440149054B2DB7014413092E
:102A6000F07F094B05B733EF740163040F069DC86F
:102A7000268597100000E78080CF930755FF7147A8
:102A8000634AF7027547130F85FF1D8FB394E40166
:102A900033D7EB00D98C339FEB011306D0C033053D
:102AA000A64021BF5E8597100000E78040CC13054B
:102AB0000502E1B7930485FDB3949B00014FF1BF7C
:102AC00033EF7401630B0F005E8F1305F07F8D47AA
:102AD000F5B5814401458547D5B581441305F07F9F
:102AE0008947E9BD63E6540163939A2A6361E42B45
:102AF0009396FA01135714009317F40193DA1A000E
:102B000033E4E6001395840093548F01458D135EE2
:102B10000501B3D8CA031313050113530301135757
:102B2000040193158F00B3F4CA03C68FB3061303D1
:102B3000939A040133675701637CD7002A97938FD8
:102B4000F8FF6367A7006375D700938FE8FF2A97A4
:102B5000158FB35EC703420441803377C703F686FF
:102B6000B308D3034207418F637C17012A979386EA
:102B7000FEFF6367A700637517019386EEFF2A9730
:102B8000C20FB3EFDF00C166330417419388F6FF2D
:102B900013DF0F0133F71F0193DE0501B3F81501B1
:102BA000B3031703B3041F033387EE02B302DF033B
:102BB000330F970013D703017A9763739700B69288
:102BC000135F0701169FC162FD12B3765700C2065C
:102BD000B3F353009E966367E401FE84631EE4032F
:102BE00063FCD702AE9733B7B7002A973A94938421
:102BF000FFFF636685006311850263EFB7006366BC
:102C0000E401631B8F0063F9D700AE9733B7B700B9
:102C10002A979384EFFF3A94B386D7403304E44174
:102C2000B3B7D7001D8C7D5F6305850E335FC4038A
:102C300013D706013374C403B307E3034204598C6A
:102C40007A87637CF4002A941307FFFF6367A4006C
:102C50006375F4001307EFFF2A941D8C335FC403E0
:102C6000C206C1823374C403FA873303E303420408
:102C7000558C637C64002A949307FFFF6367A4006C
:102C8000637564009307EFFF2A9442075D8F9317E3
:102C90000701C1833304644013530701338E1703C4
:102CA000B308130333836E02B38EFE0293570E01F3
:102CB000C69EF69763F41701C166369393D8070151
:102CC0009A9841637D13B3F66700C206337E6E00A7
:102CD000F29663661401631E14193A8F9DCA2A94F2
:102CE000130FF7FF6361A4026366140163121419E2
:102CF00063FDD50093971500B3B5B7002E95130F5C
:102D0000E7FF2A94BE85631414016384B600136F31
:102D10001F001307F83F6357E00A93777F0081CFC6
:102D20009377FF0091466388D70093064F0033BF27
:102D3000E601FA94368F9397740063D80700B707BB
:102D400000FFFD17FD8C130708409307E07F63C861
:102D5000E710135F3F009397D401B3E7E70113D562
:102D6000340032051377F77F5207B2502254318175
:102D7000598D7E063367C50092540259F249624A62
:102D8000D24A424BB24B3E85BA85456182807D185E
:102D900081478DBB4E86D684228FDA8709476380B0
:102DA000E70C0D476386E70A0547E394E7F601451C
:102DB000814785A85286DDB7B7040800014F014658
:102DC0008D47E9BF0545198D93078003E3C1A7FE31
:102DD000FD4763CAA7041308E841B39704013357BA
:102DE000AF0033180F01D98F33380001B3E7070163
:102DF00033D5A40013F7770001CF13F7F7009146FE
:102E00006308D70013874700B337F7003E95BA87AA
:102E100013178500634A07041317D5018D83D98FD3
:102E20000D8101473DBF8557998F93060002B3D7A7
:102E3000F40001476306D5001308E8433397040103
:102E4000336FE701333FE001B3E7E70101455DB7C9
:102E50003705080081471307F07F014619B7014580
:102E600081471307F07FF5BD014581470547D5BD73
:102E70007A873A8F69BD13D84501B7071000FD174F
:102E800013D746011378F87F930EF07FB3F8B7009D
:102E90002A83F58FFD81328E1377F77FFD826318C9
:102EA000D801B3EEA80063850E0689450DA8631608
:102EB000D701B3EEC700E39A0EFE631D080433E5A5
:102EC000A8001335150019E35D8E15CE11E5638A50
:102ED000D50085C9FD5521A0FD5591C2B6852E8529
:102EE0008280E34807FF6354E800F5F9E5B7E3E2C1
:102EF00017FF639CF800E36E6EFCE368C3FF814537
:102F0000F9BF8545E9BF65FDE9B7E3E0F8FEC5BF58
:102F1000E30107FB4DFF014545BF79714ECE93D9C3
:102F2000450122D426D252CC56CA5AC89394C50021
:102F300006D64AD05EC693F9F97F2A84328BB68AC8
:102F4000B18013DAF501638109089307F07F638983
:102F5000F90C9357D5018E04DD8CB7078000DD8C0A
:102F600013193500938919C0814B13D54A01139465
:102F7000CA001375F57F318093DAFA0161C59307B2
:102F8000F07F630DF5109357DB010E045D8CB707DE
:102F900080005D8C130515C093173B000147939685
:102FA0002B00D98E4E95FD16B94533465A011308AC
:102FB000150063E6D51097D5FFFF938565358A0622
:102FC000AE969442AE96828633E9A4006303090666
:102FD0009DC8268597000000E7806079130755FF9C
:102FE000F14763C9E702F547130985FF998FB39449
:102FF0002401B357F400DD8C331924019309D0C0A8
:10300000B389A94095B797000000E7804076130583
:103010000502E9B7930485FDB31494000149F9BF93
:1030200033E9A400630B09002A899309F07F8D4BD3
:103030002DBF81448149854B0DBF81449309F07FA9
:10304000894B25B7B3676401B5C31DC822859700B6
:103050000000E780C071930655FFF14763CAD702AD
:103060007547930785FF158F3314F4003357EB0032
:10307000598CB317FB001307D0C03305A74039BFE5
:103080005A8597000000E780806E13050502E1B7BE
:10309000130485FD33148B008147F1BFB3676401CE
:1030A00091CBDA871305F07F0D47D5BD014401456B
:1030B0000547F5B501441305F07F0947CDB5416FCC
:1030C000930EFFFF1357090193D807013379D901F4
:1030D000B3F7D701B3852803B3862703B30FF702ED
:1030E0003383F50193D506019A95330E170363F3E5
:1030F000F5017A9E93D30501B3F5D501B3F6D60158
:10310000135F0401B372D401C205B695B30E570222
:10311000B386220333092F033303D90113D90601E0
:103120001A993307E7036374D90141631A97935ED1
:103130000901C169BA9E1387F9FF3379E900F98E55
:1031400013D404014209F98C369933879702CA9344
:103150003303F402B3869802B3878802B38866000B
:1031600093560701C69663F36600CE9793D806017F
:10317000C169B38FF8009387F9FFFD8E7D8FB38807
:103180009202C206BA96B3075402B3049F023303F5
:103190008F02BE9413D40801A29463F3F4004E93FB
:1031A000C167FD1733F7F400B3F8F80042071E9E1D
:1031B000469733392E01769733042701369EB3366E
:1031C000DE00B308F401338FD8003337D70133342E
:1031D0002401598CC180B3B8F801B336DF002694BE
:1031E000B3E6D80036941A9493577F0126045D8C79
:1031F00093179E00CD8FB337F000135E7E01131737
:103200009F00B3E7C701D98F131774006358070AEB
:1032100013D71700858BD98F1317F401D98F058029
:103220009306F83F635ED00813F7770001CF13F7DA
:10323000F70091456308B70013874700B337F700DD
:103240003E94BA871317740063580700370700FFCE
:103250007D17798C930608401307E07F634CD70EE7
:1032600013D737009317D401D98F0D80320413F789
:10327000F67F52073180598C7E063367C400B25006
:10328000225492540259F249624AD24A424BB24BFA
:103290003E85BA854561828052862684CA875E87CC
:1032A00089466309D70A8D46630FD7088546E31917
:1032B000D7F6014481479DA05686DDB72A888DB791
:1032C0008545958D13078003E345B7FE7D47634928
:1032D000B7041308E84133170401B3D6B700B39716
:1032E0000701558FB337F000D98F3354B40013F76B
:1032F000770001CF13F7F70091466308D7001387D3
:103300004700B337F7003E94BA8713178400634829
:1033100007041317D4018D83D98F0D808146B9B767
:103320000557158F130500023357E4008146638665
:10333000A5001308E843B3160401D58FB337F00096
:10334000D98F01446DB73704080081479306F07F99
:10335000014629BF014481479306F07F01BF014424
:103360008147854621B713D74501B70610009387DB
:10337000F6FF1377F77F1306E03FED8FFD8163546F
:10338000E6041306D0416358E60037050080134574
:10339000F5FF2E958280D58F93063043998E7D461A
:1033A000634DD6001307D7BEB397E7003355D5005A
:1033B0005D8D99C93305A040828013053041198D78
:1033C00033D5A700FDB701458280411106C622C44E
:1033D00026C22DC19357F54133C4A7001D8C9354C9
:1033E000F501228597000000E78060381307E0416F
:1033F000A947098F63CAA702AD47898F5505B357FF
:10340000F4003314A4002685B2071377F77F520720
:10341000B1837E05D98F33E7A700B24022852244CD
:103420009244BA85410182805515B317A4002685C0
:103430000144D9BF01478147E5BF411122C406C6F7
:103440002A8421C597000000E78060321307E0411D
:10345000A947098F63C6A702AD47898F5505B357A2
:10346000F4003314A4002285B2402244B20713773B
:10347000F77F5207B183B3E6E700B685410182804A
:103480005515B317A4000144F9BF81470147E1BFB7
:10349000011106CE22CC26CA4AC84EC652C4B36712
:1034A000B500638607142A842E89AE84BDC52E8597
:1034B00097000000E780A02BAA89130AE043330A93
:1034C0003A419307304363C74707AD47228563D32B
:1034D00037039307A00263C937059305B0029387AA
:1034E00059FFB3853541B355B400B314F900CD8C01
:1034F0003315F4009395C400F2406244137AFA7FC6
:10350000520AB181B3E745012A87D2444249B24900
:10351000224A3A85BE850561828097000000E780D7
:1035200000259309050251BF938559FDB314B400DA
:103530000145C9B79307604363D9470313868903DD
:103540002285CA8597000000E780C01FC98D2146EB
:10355000B334B0002285CA85330636419700000097
:10356000E780A01B33E4A4002E89A147228563D401
:1035700037039307700263C637079305800293876A
:1035800089FFB38535413319F900B355B40033E9E8
:1035900025013315F400B70780FFFD17B375F90057
:1035A0009377750081CF9377F50011476388E70023
:1035B0009307450033B5A700AA953E8593978500EC
:1035C00063DA0700B70780FFFD17130AF043FD8D8C
:1035D000330A3A410D819397D5015D8D93D435001F
:1035E00011BF138989FD3319240101456DB7814449
:1035F0000145014A01B7370680001357750193074B
:10360000F6FF1377F70F9305E007E98F9356F5015F
:1036100063F1E5049305D00963F8E5003705008000
:103620001345F5FF3695828033E5C70093075009AF
:1036300063DAE7001307A7F63315E50081CE3305FB
:10364000A0408280930760093387E7403355E50047
:10365000F5B701458280411106C622C426C2AA8759
:1036600045C91357F5413344A700198C9354F5010C
:10367000228597000000E780800F9307E009898F7B
:10368000130760096346F70221476355A7006115D8
:103690003314A400260493F7F70FDE072580139553
:1036A000F4015D8C418DB2402244924441018280FC
:1036B00013079009635DF7001547098F9306B5015D
:1036C0003357E4003314D40033348000598C154749
:1036D0006356A7001307B5FF3314E400370700FC57
:1036E0007D1793767400618F91C63D889146630380
:1036F000D40011079316570063D90600B70700FCE2
:10370000FD177D8F9307F009898F1354370059B740
:103710008144014441B701CE93070002918F634970
:10372000F000130506FE014733D5A500BA85828057
:1037300033D7C5003355C500B395F5004D8DFDB7A2
:1037400001CE93070002918F6349F000930506FEB6
:103750000147B315B5003A8582803317C500B3958C
:10376000C5003355F500C98DFDB7C1676376F50215
:103770009307F00FB3B7A7008E07130700021D8F42
:10378000B357F50017D5FFFF130545BCAA9703C52E
:1037900007003305A740828037070001C147E36E69
:1037A000E5FCE147D9BFAA858146014601451703DB
:1037B0000000670043134111814522C406C62A84D4
:1037C00097000000E780401997D7FF17938787CAB3
:1037D00088435C5D91C38297228597E0FFFFE78075
:1037E00000BA411122C4970700009387672317048A
:1037F00000001304E4221D8C06C626C2098411C8E9
:1038000093142400F114BE949C407D14F11482970B
:1038100065FCB2402244924441018280411122C49D
:103820004AC0170400001304441F170900001309BD
:10383000C91E3309894006C626C2135929406309A7
:10384000090081441C40850411048297E31C99FE01
:10385000170400001304841C170900001309491CF5
:1038600033098940135929406309090081441C40E8
:10387000850411048297E31C99FEB24022449244CD
:1038800002494101828097D7FF17938767BEB286AE
:103890002E86AA8588431703000067008300AE8741
:1038A000411122C4B2852A8436863E8506C697D742
:1038B000FF1723AD07BC97E0FFFFE78080B7FD57F8
:1038C0006306F500B24022444101828097D7FF177A
:1038D0009387C7BB9C43FDD71CC0B2402244410123
:1038E000828097D7FF179387E7B898438327871479
:1038F000A1C3D8437D48634DE804131827001DC1B8
:10390000338307012324C30883A887180546331689
:10391000E600B3E8C80023A417192324D31089466E
:10392000630DD5000507D8C3C2978CC701458280B7
:103930009307C7142324F7146DBF83A6C718050780
:10394000D8C3558E23A6C718C2978CC7014582805D
:103950007D558280797197D7FF179387A7B162C48D
:1039600003AC07004ECE52CC56CA5AC806D622D453
:1039700026D24AD05EC6AA8A2E8B054AFD59032953
:103980008C1463040902832449001384F4FF634EFA
:1039900004008A04CA9463060B0283A7441063825E
:1039A00067037D14F114E31834FFB250225492548B
:1039B0000259F249624AD24A424BB24B224C45610B
:1039C000828083274900D440FD176380870423A2A7
:1039D0000400E1DA8327891833178A00832B490012
:1039E000F98F99EB829683274900E39A77F9832729
:1039F0008C14E38827FB61B78327C91883A5440883
:103A00007D8F19E756858296F9BF23228900D1B7A9
:063A10002E858296C9BF5D
:043A18008405000819
:103A1C00002D0000911A0000090E00002007000084
:103A2C0094030000CA010000E500000073000000D0
:103A3C00390000001C0000000E0000000700000010
:103A4C000400000002000000010000000000000063
:103A5C00000000002C03002094030020FC03002035
:103A6C00000000000000000000000000000000004A
:103A7C00000000000000000000000000000000003A
:103A8C00000000000000000000000000000000002A
:103A9C00000000000000000000000000000000001A
:103AAC00000000000000000000000000000000000A
:103ABC0000000000000000000000000000000000FA
:103ACC0000000000000000000000000000000000EA
:103ADC0000000000000000000000000000000000DA
:103AEC0000000000000000000000000000000000CA
:103AFC0000000000000000000100000000000000B9
:103B0C000E33CDAB34126DE6ECDE05000B0000007D
:103B1C000000000000000000000000000000000099
:103B2C000000000000000000000000000000000089
:103B3C000000000000000000000000000000000079
:103B4C000000000000000000000000000000000069
:103E7C00000000000000000000F36F06400000206E
:043E8C0040000020D2
:040000050800015C92
:00000001FF
