:020000040800F2
:10000000B1AA010000000000000000000000000094
:1000100000000000000000000000000000000000E0
:1000200000000000000000000000000000000000D0
:1000300000000000000000000000000000000000C0
:1000400000000000000000000000000000000000B0
:1000500000000000000000000000000000000000A0
:100060000000000000000000000000000000000090
:100070000000000000000000000000000000000080
:100080000000000000000000000000000000000070
:100090000000000000000000000000000000000060
:1000A0000000000000000000000000000000000050
:1000B0000000000000000000000000000000000040
:1000C0000000000000000000000000000000000030
:1000D0000000000000000000000000000000000020
:1000E0000000000000000000000000000000000010
:1000F0000000000000000000000000000000000000
:1001000000000000000000000000000000000000EF
:1001100000000000000000000000000000000000DF
:1001200000000000000000000000000000000000CF
:1001300000000000000000000000000000000000BF
:1001400000000000000000000000000000000000AF
:100150000000000000000000000000007370043088
:10016000170500001305C5FF8545F605637BB5003F
:1001700089816378B500170500001305C5002E9529
:1001800002859302002073A0027D970200009382F3
:1001900062E773907230971200009382E2227390AC
:1001A000C27E73E0C07E971200009382A219739002
:1001B000523097110018938161A71781001813011D
:1001C00061E4172500001305A5169705001893850F
:1001D00065E3170600181306262663FAC500832276
:1001E000050023A0550011059105E3EAC5FE17059A
:1001F0000018130565249705001893852524637757
:10020000B500232005001105E36DB5FE73F0023241
:1002100017250000130545EE97200000E78000EA4F
:1002200097200000E780E0F097100000E78060E092
:100230000145814597000000E7804020172300001A
:100240006700C3E801A073E00232828073F00232DB
:0402500082800000A8
:100280000A50726F6772616D2068617320657869CA
:10029000746564207769746820636F64653A000050
:1002A000307800006E6D690A0000000074726170A1
:1002B0000A00000000000000000000000040AF4005
:1002C000A4160000F4150000FA150000F415000053
:1002D00096160000F4150000FA150000A4160000A0
:1002E000A416000096160000FA150000DA150000AA
:1002F000DA150000DA150000FE150000AA1A000049
:10030000AA1A0000C21A0000A41A0000A41A0000D1
:10031000501B0000C21A0000A41A0000501B00006D
:10032000A41A0000C21A0000A21A0000A21A0000BB
:10033000A21A0000501B0000000102020303030385
:100340000404040404040404050505050505050565
:100350000505050505050505060606060606060645
:10036000060606060606060606060606060606062D
:100370000606060606060606070707070707070715
:1003800007070707070707070707070707070707FD
:1003900007070707070707070707070707070707ED
:1003A00007070707070707070707070707070707DD
:1003B00007070707070707070808080808080808C5
:1003C00008080808080808080808080808080808AD
:1003D000080808080808080808080808080808089D
:1003E000080808080808080808080808080808088D
:1003F000080808080808080808080808080808087D
:10040000080808080808080808080808080808086C
:10041000080808080808080808080808080808085C
:10042000080808080808080808080808080808084C
:100430000808080808080808411106C622C426C290
:100440004AC09304803E97100000E78040DD3729C2
:10045000014097100000E78080CD37541F0029A08D
:1004600097100000E78060E98327C9441305400620
:10047000B3879702E3D687FE0145DDB7970700F8FB
:10048000938747B889CB172500001305E5C61723C6
:1004900000006700A3C282804111B727014006C651
:1004A00093870740630BF500B737014093870780B8
:1004B0006303F502B240410182801305903097003A
:1004C0000000E7802035B24013059030410117034A
:1004D00000006700A3351305A03097000000E780F7
:1004E0006033B2401305A0304101170300006700DC
:1004F000E333B727014003A74740B706F1FFFD16D6
:10050000758F23A2E74003A74740598D23A2A74038
:10051000828093F705100DC699EF93F7054089C7C0
:100520005C4193E707405CC1898985CD1C4593E711
:1005300027001CC582805C4193E707105CC1F1BFB6
:1005400089C75C4193F7F7EF5CC193F7054089C712
:100550005C4193F7F7BF5CC1898981C51C45F59B58
:100560001CC582801C4599C5056713070780D98F74
:100570001CC582807D771307F77FF98F1CC58280A9
:100580001C45858B89E71C4593E717001CC58280B5
:100590001C451307850093E787001CC51C43A18BEE
:1005A000F5FF1C4593E747001CC51C43918BF5FFE5
:1005B000828085476385F50289476391F5021C5D5A
:1005C0003707D0FF7D17F98F1CDD1C5D7D165206A5
:1005D00037073000798E5D8E10DD828082805C5519
:1005E000370710FF7D17F98F5CD55C557D165206D5
:1005F0003707F000798E5D8E50D58280954763E293
:10060000B70493972500BE955859FD47B397B70097
:1006100093C7F7FFF98FB315B600DD8D4CD9A54709
:1006200063E6C704931716003E9618499D47B39793
:10063000C70093C7F7FFF98F3396C6005D8E10C9C8
:100640008280AD4763E7B704E91593972500BE950F
:100650001859FD47B397B70093C7F7FFF98FB31544
:10066000B600DD8D0CD9A547E3FEC7FAC54763E1A7
:10067000C7025916131716004C453A969D47B39773
:10068000C70093C7F7FFED8F3396C6005D8E50C548
:100690008280BD47E3E5B7F8D11593972500BE9555
:1006A0005855FD47B397B70093C7F7FFF98FB315B8
:1006B000B600DD8D4CD5A5B78547638FF50089471A
:1006C000639BF5001C4565777D17F98F1CC51C459C
:1006D0005D8E10C5828082801C453707F2FF7D1732
:1006E000F98F1CC51C455D8E10C5828093F71500DF
:1006F0000DC281EB898989CD1C452167D98F1CC525
:1007000082801C45370710008989D98F1CC5EDF5FB
:10071000828099C71C453707F0FF7D17F98F1CC5EC
:100720008989FDD51C4561777D17F98F1CC58280AD
:1007300093F7150091C71C4537074000D98F1CC59A
:10074000898991C51C4537072000D98F1CC5828037
:1007500093F7050193F8F50099C3B3E8C800814702
:10076000854E3D4E930F80029302800421431396E1
:1007700027003397FE003318CE00758F1348F8FF1B
:100780003396C80001CF032F05003378E8013366A4
:100790000601638FF5056389550410C18507E39849
:1007A00067FC854E3D4E930F8002930280044143C7
:1007B0001397270001173396FE003318EE00758E4D
:1007C0001348F8FF3397E80001CE032F4500337834
:1007D000E80133670701638FF5016389550058C14C
:1007E0008507E39767FC828018C945BF10C9C5BF5C
:1007F00058C965B750C9E5B7B71702401357650028
:100800003E9714438547B397A700D58F1CC38280BA
:10081000B7170240135765003E9714438547B397B7
:10082000A700D58F1CC38280B717024013576500FD
:100830003E9714438547B397A70093C7F7FFF58FFB
:100840001CC38280B7170240DC433747FFEF7D1798
:100850009546F98F6300D50263EBA6000D476364EC
:10086000A7003A05C98F371702405CC382801D4735
:10087000E31BE5FE31773A05798D5D8DB7070010F2
:10088000C98F371702405CC3828083D7050003D726
:1008900045001376F5BF1CD5B7370140938707C0D5
:1008A000418B6306F504FD779387F73FE98FB70621
:1008B0000040638ED7021C41B7160040BD9B1CC18F
:1008C0001C415D8F18C19C455CD5630DD600184155
:1008D00083D7C5001377F7CF18C1184193F70730B6
:1008E000D98F1CC15C4993E717005CC98280144111
:1008F00083D725003718004093F6F6F814C1144149
:1009000093F70706D58F1CC11C415D8F18C19C450C
:100910005CD5E30906FD184183D7C500B736014011
:100920001377F7CF18C1104193F70730138706C02C
:10093000D18F1CC1E318E5FA83C7E50023A8F6C2EE
:100940005C4993E717005CC982801C4193E717005C
:100950001CC182804CD5828085476388F5007C412C
:1009600061777D17F98F7CC182807C412167D98FA7
:100970007CC1828085476385F50CD9C5894763872B
:10098000F5048D476393F5041C517D777D17F98F2E
:100990001CD1835706001851F976B207D98F1CD1A4
:1009A0001851FD1683574600758F18D11451B207A0
:1009B00037370140D58F1CD1930707C0630AF51E56
:1009C0005C4D93F7F7CF5CCD828082801451035742
:1009D00006008357460093F6F6EF14D11451220710
:1009E000A207558F18D1145137370140930507C01E
:1009F00093F6F6DF14D11451D58F1CD16301B514D1
:100A00005C4DF19B5CCD82801C51835606000357E0
:100A10004600F99B1CD103280502B7370140938596
:100A200007C0B3E6060114D11451F59A14D114513C
:100A3000558F18D16307B50A1C4DF19B1CCD8280E0
:100A400014510357060083574600BD9A14D1145120
:100A500012079207558F18D114513737014093056B
:100A600007C093F6F6FD14D11451D58F1CD163073E
:100A7000B5001C4D93F7F7CF1CCD82800C518356E7
:100A800026008357660093F5F5FB0CD10C519206B6
:100A90009207CD8E14D10C518356860093F5F5F74D
:100AA0000CD10C518A06CD8F1CD1832547C08357AA
:100AB000A60093F5F5BF2322B7C0032647C08A07D7
:100AC000D18E2322D7C0832647C07D761306F67FBA
:100AD000F18E2322D7C0832647C0D58F2322F7C0AB
:100AE00049BF185103582600835566006D9B18D1E5
:100AF00083280502835686000357A6003368180131
:100B00002320050310515D9A10D11051D18D0CD1C5
:100B100003A647C01376F6EF23A2C7C003A647C0BB
:100B2000D18E23A2D7C083A647C093F6F6DF23A2B7
:100B3000D7C083A647C0558F23A2E7C0F5BD0C518F
:100B400083572600FD7693F5F5BF0CD10C51A20713
:100B50009388F67FCD8F1CD1032805029385F6FF7D
:100B600083576600B376180114D103280502A20743
:100B700083568600B3E707011CD1832747C092063E
:100B8000FD8D2322B7C0832547C08357A600797601
:100B9000CD8E2322D7C0832647C07D169207F18EC3
:100BA0002322D7C0832647C0D58F2322F7C089BD13
:100BB000832747C0F176FD16F58F2322F7C08357B0
:100BC0008600832647C09A07D58F2322F7C0CDBB66
:100BD00085476384F502A1C58947638AF5028D477D
:100BE000639CF5005C4D65777D17F98F5CCD5C4D9E
:100BF00022065D8E50CD828082801C4D65777D17E8
:100C0000F98F1CCD1C4D22065D8E10CD82805C4D6F
:100C100093F7F7F85CCD5C4D5D8E50CD82801C4D16
:100C200093F7F7F81CCD1C4D5D8E10CD8280854763
:100C3000638CF50091CD8947638AF5008D476394F5
:100C4000F50030C18280828010DD828050DD82809C
:100C500050D9828085476385F502A9C58947638C91
:100C6000F5028D47639DF5005C4D7D771307F77F97
:100C7000F98F5CCD5C4D22065D8E50CD82808280E6
:100C80001C4D7D771307F77FF98F1CCD1C4D220675
:100C90005D8E10CD82805C4DDD9B5CCD5C4D5D8EAC
:100CA00050CD82801C4DDD9B1CCD1C4D5D8E10CD2A
:100CB000828093F5F51F4CC1828093D7650093F72E
:100CC000F73F3E9508413355B50005898280B71737
:100CD00002409843B706FFE0B1061367170098C3B8
:100CE000D8433706F7EA7D16758FD8C39843B70601
:100CF000F7FEFD16758F98C39843B706FCFFFD16E7
:100D0000758F98C3D843B70601DFFD16758FD8C31A
:100D100023A6070294433707FF00C165F18E94C3F1
:100D200098C798439386F5FF371602404D8F98C3B6
:100D300011A099C61C42FD161397E700E35B07FE5E
:100D4000B717024098439316E70063D0060AD843CA
:100D50003706C4DF7D16D8C3D843B7160240D8C3C0
:100D6000D84313670740D8C3D843718FD8C3D8433B
:100D700037062920518FD8C3D8573D76718FD8D7E1
:100D8000D8574166130616F1518FD8D798433706C6
:100D90000004518F98C39C4213974700E35D07FE00
:100DA0009C423706001037170240D18F9CC21C436B
:100DB00093962700E3DD06FE144337060001B717BC
:100DC0000240D18E14C3984393166700E3DD06FEFC
:100DD000D843B7160240719BD8C3D8431367270086
:100DE000D8C3DC42A18BF5DF828001A0B7070008E1
:100DF0009387072803AF070083AE470003AE870041
:100E000003A3C70083A8070103A84701944F03D792
:100E1000C70183C7E7017971794622D48A852A847C
:100E2000094506D67AC076C272C41AC646C842CAF6
:100E300036CC231EE100230FF10097100000E7805D
:100E4000E035A285094597000000E780C00AB70594
:100E5000000805469385052B094597100000E7809B
:100E6000E03301A0411122C43744014026C29375EA
:100E7000F50FAA841305048006C6130404809700A6
:100E80000000E78040E39D45228597000000E78051
:100E900000E375D9B2402244268592444101828004
:100EA00001114EC606CE22CC26CA4AC8B28915C246
:100EB0002E843389C500A944034504000504970026
:100EC0000000E78060FA8347F4FF638C9700E31526
:100ED00024FFF24062444E85D2444249B249056142
:100EE0008280354597000000E78000F8E31624FD76
:100EF000CDB7797156CAAE8AB70500080946938501
:100F0000052A22D426D24AD04ECE52CC06D62A8AE0
:100F1000714497100000E7806028BD492549F154CD
:100F200005A093F7F60F711405469305F10052855D
:100F3000A307F10097100000E7804026630F94029A
:100F4000B3978900B3F75701B3D7870093F7F70F2B
:100F50009386070313877703E375F9FC9377F70FFD
:100F6000711405469305F1005285A307F10097100F
:100F70000000E780A022E31594FCB2502254925462
:100F80000259F249624AD24A45618280B70700D1CC
:100F9000D8438843CC43E39DE5FE8280370700D2E7
:100FA000230007001205B71700D2A30507003E95DE
:100FB00063F7A70023A00700C107E3EDA7FE828027
:100FC000F327503093F707FC93E7370073905730BF
:100FD0008280B7050008411115469385452A0545CD
:100FE00006C697100000E780601B054597000000CB
:100FF000E78000E041119347F5FF22C406C613972E
:1010000047012A8405C3B705000815469385C52AFC
:10101000054597100000E7806018228597000000C2
:10102000E78000DD97000000E780E0FAE9BF4111AA
:1010300006C697000000E780C0C913057005970039
:101040000000E780E0F597000000E780A0F7B240DD
:10105000410117F3FFFF6700431F828079714AD077
:101060004ECE5EC606D622D426D252CC56CA5AC816
:1010700062C466C2AA8B97000000E78060F12A89EB
:10108000AE8997000000E780A0F02A84AE84631444
:10109000A900E388B9FEB707000803A9872B83A935
:1010A000C72B370B002097000000E78060EEAA876F
:1010B000018DB3B7A700858D9D8D97100000E78047
:1010C00080E02A8A03258B42AE8A97100000E780D1
:1010D00020DA4A86CE8697000000E78000362A8C08
:1010E0005E85AE8C97100000E78080D82A86AE8699
:1010F0006285E68597100000E780C0922A86AE865A
:101100005285D68597100000E7808087E34D05F86B
:10111000B250225492540259F249624AD24A424B86
:10112000B24B224C924C45618280411113053060D4
:1011300006C622C497F0FFFFE780406C37150140D8
:1011400085460D468145130505C097F0FFFFE780F2
:1011500060601305906097F0FFFFE780206A0D45FF
:101160003724014097F0FFFFE780006E130504402D
:1011700097F0FFFFE7808032014597F0FFFFE7809F
:101180008037054613050440894597F0FFFFE78047
:10119000803813050440814597F0FFFFE780C03C8D
:1011A000130504400546854597F0FFFFE780A04002
:1011B0008946130504402146814597F0FFFFE780EB
:1011C00020441305044037060E00854597F0FFFFC5
:1011D000E780C04E854505461305044097F0FFFFA4
:1011E000E78000511305044097F0FFFFE780803946
:1011F000054597000000E780A0E61305044097F03E
:10120000FFFFE7802039130504402244B2408545A2
:10121000410117F3FFFF6700E35179711305206067
:1012200006D622D497F0FFFFE780405D1305B0603B
:1012300097F0FFFFE780805C3715014093060010B0
:101240000D46E1451305058097F0FFFFE7808050CC
:10125000373401400C08130504C09307B0063EC89C
:10126000231A010002CC231E0100230F010097F076
:10127000FFFFE780C06185475000130504C081452A
:101280003EC202C402C697F0FFFFE780E06E95659C
:10129000130504C09385F5E197F0FFFFE780C06B6D
:1012A000130504C013060006814597000000E7807F
:1012B0006092130504C00146814597000000E78055
:1012C000A0991306803E130504C0814597000000D5
:1012D000E7802096130504C0854597F0FFFFE7805F
:1012E000E067130504C097F0FFFFE7804066B25047
:1012F0002254456182801306853E37350140814581
:10130000130505C0170300006700A392000000004A
:1013100000000000000000000000000000000000CD
:1013200000000000000000000000000000000000BD
:1013300000000000000000000000000000000000AD
:101340005D7106C012C216C41AC61EC82ACA2ECCA7
:1013500032CE36D03AD23ED442D646D872DA76DC95
:101360007ADEFEC0F322103496C0F322003096C21B
:10137000F322407C96C4732520348A8597000000B0
:10138000E78080C786427390123496427390023091
:10139000A6427390427C82401242A2423243C24330
:1013A0005245E245724682561257A2573258C258E9
:1013B000525EE25E725F864F616173002030000012
:1013C000000000005D7106C012C216C41AC61EC815
:1013D0002ACA2ECC32CE36D03AD23ED442D646D8C5
:1013E00072DA76DC7ADEFEC073D0E87E7350F97E66
:1013F00073D0B97EF390D07E73700430B642739090
:10140000427CA642739012349642739022348240FA
:101410001242A2423243C2435245E24572468256CC
:101420001257A2573258C258525EE25E725F864F20
:10143000616173002030797113D8450126D24ECEF8
:1014400052CC5AC85EC69394C50006D622D44AD060
:1014500056CA1378F87F2A8BB28B368AB18093D91B
:10146000F501630408089307F07F630EF80C935AA4
:10147000D5018E04B3E49A00B70A8000B3EA5401A0
:1014800013143500130918C0014B13554A01931466
:10149000CA001378F57FB180135AFA016308080C6B
:1014A0009307F07F6301F8121395340093D7DB01A3
:1014B0005D8DB7048000C98C139F3B00130518C0D5
:1014C000814713172B005D8F7D17B94633C649013D
:1014D0003308A94063EBE61097F6FFFF938686DE9C
:1014E0000A073697184336970287B3EAA400638643
:1014F0000A068DCC268597100000E78060B8930718
:1015000055FF7147634BF702F54A130485FFB38A11
:10151000FA40B3948400B35A5B01B3EA9A003314DF
:101520008B001308D0C03309A840B9BF9710000042
:10153000E78000B513050502D9B7930485FDB31AFA
:101540009B000144F9BFB3EAA400638C0A002A841B
:10155000A68A1309F07F0D4B0DBF01440149054BCD
:101560002DB701441309F07F094B05B733EF740120
:1015700063040F069DC8268597100000E78040B0E1
:10158000930755FF7147634AF7027547130F85FFAD
:101590001D8FB394E40133D7EB00D98C339FEB015B
:1015A0001306D0C03305A64021BF5E85971000000A
:1015B000E78000AD13050502E1B7930485FDB39400
:1015C0009B00014FF1BF33EF7401630B0F005E8F7F
:1015D0001305F07F8D47F5B5814401458547D5B5A5
:1015E00081441305F07F8947E9BD63E654016393A5
:1015F0009A2A6361E42B9396FA0113571400931708
:10160000F40193DA1A0033E4E6001395840093544E
:101610008F01458D135E0501B3D8CA03131305016D
:10162000135303011357040193158F00B3F4CA0336
:10163000C68FB3061303939A040133675701637C83
:10164000D7002A97938FF8FF6367A7006375D700C9
:10165000938FE8FF2A97158FB35EC703420441803A
:101660003377C703F686B308D3034207418F637C01
:1016700017012A979386FEFF6367A700637517011A
:101680009386EEFF2A97C20FB3EFDF00C1663304E3
:1016900017419388F6FF13DF0F0133F71F0193DE25
:1016A0000501B3F81501B3031703B3041F03338710
:1016B000EE02B302DF03330F970013D703017A97CB
:1016C00063739700B692135F0701169FC162FD1204
:1016D000B3765700C206B3F353009E966367E401E6
:1016E000FE84631EE40363FCD702AE9733B7B700F2
:1016F0002A973A949384FFFF6366850063118502FD
:1017000063EFB7006366E401631B8F0063F9D700E2
:10171000AE9733B7B7002A979384EFFF3A94B38616
:10172000D7403304E441B3B7D7001D8C7D5F630518
:10173000850E335FC40313D706013374C403B307A4
:10174000E3034204598C7A87637CF4002A941307DC
:10175000FFFF6367A4006375F4001307EFFF2A948B
:101760001D8C335FC403C206C1823374C403FA877D
:101770003303E3034204558C637C64002A9493078B
:10178000FFFF6367A400637564009307EFFF2A946B
:1017900042075D8F93170701C183330464401353DD
:1017A0000701338E1703B308130333836E02B38E1E
:1017B000FE0293570E01C69EF69763F41701C166A9
:1017C000369393D807019A9841637D13B3F6670067
:1017D000C206337E6E00F29663661401631E14190E
:1017E0003A8F9DCA2A94130FF7FF6361A4026366C0
:1017F00014016312141963FDD50093971500B3B556
:10180000B7002E95130FE7FF2A94BE8563141401C9
:101810006384B600136F1F001307F83F6357E00A95
:1018200093777F0081CF9377FF0091466388D7003D
:1018300093064F0033BFE601FA94368F93977400F6
:1018400063D80700B70700FFFD17FD8C130708409A
:101850009307E07F63C8E710135F3F009397D401BD
:10186000B3E7E70113D5340032051377F77F52074A
:10187000B25022543181598D7E063367C50092548F
:101880000259F249624AD24A424BB24B3E85BA856E
:10189000456182807D1881478DBB4E86D684228F1C
:1018A000DA8709476380E70C0D476386E70A054737
:1018B000E394E7F60145814785A85286DDB7B70472
:1018C0000800014F01468D47E9BF0545198D930773
:1018D0008003E3C1A7FEFD4763CAA7041308E841DC
:1018E000B39704013357AF0033180F01D98F333842
:1018F0000001B3E7070133D5A40013F7770001CF48
:1019000013F7F70091466308D70013874700B337F2
:10191000F7003E95BA8713178500634A070413172B
:10192000D5018D83D98F0D8101473DBF8557998F93
:1019300093060002B3D7F40001476306D5001308ED
:10194000E84333970401336FE701333FE001B3E726
:10195000E70101455DB73705080081471307F07FB0
:10196000014619B7014581471307F07FF5BD0145D1
:1019700081470547D5BD7A873A8F69BD13D84501A0
:10198000B7071000FD1713D746011378F87F930EA1
:10199000F07FB3F8B7002A83F58FFD81328E13777D
:1019A000F77FFD826318D801B3EEA80063850E06A9
:1019B00089450DA86316D701B3EEC700E39A0EFE62
:1019C000631D080433E5A8001335150019E35D8E87
:1019D00015CE11E5638AD50085C9FD5521A0FD55B9
:1019E00091C2B6852E858280E34807FF6354E800E4
:1019F000F5F9E5B7E3E217FF639CF800E36E6EFCD0
:101A0000E368C3FF8145F9BF8545E9BF65FDE9B7D7
:101A1000E3E0F8FEC5BFE30107FB4DFF014545BF0D
:101A200079714ECE93D9450122D426D252CC56CAD2
:101A30005AC89394C50006D64AD05EC693F9F97F7A
:101A40002A84328BB68AB18013DAF50163810908E2
:101A50009307F07F6389F90C9357D5018E04DD8CD1
:101A6000B7078000DD8C13193500938919C0814BAD
:101A700013D54A011394CA001375F57F318093DAA8
:101A8000FA0161C59307F07F630DF5109357DB01F1
:101A90000E045D8CB70780005D8C130515C093178D
:101AA0003B00014793962B00D98E4E95FD16B94504
:101AB00033465A011308150063E6D51097F5FFFF6A
:101AC000938505848A06AE969442AE96828633E963
:101AD000A400630309069DC8268597000000E780DF
:101AE000205A130755FFF14763C9E702F547130969
:101AF00085FF998FB3942401B357F400DD8C33191B
:101B000024019309D0C0B389A94095B7970000007C
:101B1000E780005713050502E9B7930485FDB31468
:101B200094000149F9BF33E9A400630B09002A8935
:101B30009309F07F8D4B2DBF81448149854B0DBFAB
:101B400081449309F07F894B25B7B3676401B5C31E
:101B50001DC8228597000000E7808052930655FF3C
:101B6000F14763CAD7027547930785FF158F331472
:101B7000F4003357EB00598CB317FB001307D0C0A8
:101B80003305A74039BF5A8597000000E780404FD2
:101B900013050502E1B7130485FD33148B0081475B
:101BA000F1BFB367640191CBDA871305F07F0D476E
:101BB000D5BD014401450547F5B501441305F07F46
:101BC0000947CDB5416F930EFFFF1357090193D815
:101BD00007013379D901B3F7D701B3852803B38659
:101BE0002703B30FF7023383F50193D506019A95C6
:101BF000330E170363F3F5017A9E93D30501B3F512
:101C0000D501B3F6D601135F0401B372D401C20546
:101C1000B695B30E5702B386220333092F0333035D
:101C2000D90113D906011A993307E7036374D9015F
:101C300041631A97935E0901C169BA9E1387F9FF40
:101C40003379E900F98E13D404014209F98C3699ED
:101C500033879702CA933303F402B3869802B3879B
:101C60008802B388660093560701C69663F3660040
:101C7000CE9793D80601C169B38FF8009387F9FF17
:101C8000FD8E7D8FB3889202C206BA96B3075402C6
:101C9000B3049F0233038F02BE9413D40801A294AD
:101CA00063F3F4004E93C167FD1733F7F400B3F804
:101CB000F80042071E9E469733392E01769733046B
:101CC0002701369EB336DE00B308F401338FD80007
:101CD0003337D70133342401598CC180B3B8F801AC
:101CE000B336DF002694B3E6D80036941A9493579F
:101CF0007F0126045D8C93179E00CD8FB337F000D3
:101D0000135E7E0113179F00B3E7C701D98F131726
:101D100074006358070A13D71700858BD98F1317E0
:101D2000F401D98F05809306F83F635ED00813F75E
:101D3000770001CF13F7F70091456308B7001387C9
:101D40004700B337F7003E94BA87131774006358FF
:101D50000700370700FF7D17798C930608401307AB
:101D6000E07F634CD70E13D737009317D401D98F78
:101D70000D80320413F7F67F52073180598C7E06AE
:101D80003367C400B250225492540259F249624A55
:101D9000D24A424BB24B3E85BA854561828052861B
:101DA0002684CA875E8789466309D70A8D46630FF2
:101DB000D7088546E319D7F6014481479DA056868A
:101DC000DDB72A888DB78545958D13078003E345D8
:101DD000B7FE7D476349B7041308E8413317040190
:101DE000B3D6B700B3970701558FB337F000D98F3B
:101DF0003354B40013F7770001CF13F7F70091467F
:101E00006308D70013874700B337F7003E94BA87BB
:101E100013178400634807041317D4018D83D98FE7
:101E20000D808146B9B70557158F1305000233574A
:101E3000E40081466386A5001308E843B316040155
:101E4000D58FB337F000D98F01446DB73704080040
:101E500081479306F07F014629BF014481479306DD
:101E6000F07F01BF01448147854621B7411122C45B
:101E700006C62A8421C597000000E780602013076A
:101E8000E041A947098F63C6A702AD47898F550571
:101E9000B357F4003314A4002285B2402244B207A1
:101EA0001377F77F5207B183B3E6E700B6854101A8
:101EB00082805515B317A4000144F9BF814701473B
:101EC000E1BF011106CE22CC26CA4AC84EC652C472
:101ED000B367B500638607142A842E89AE84BDC516
:101EE0002E8597000000E780A019AA89130AE04315
:101EF000330A3A419307304363C74707AD4722850A
:101F000063D337039307A00263C937059305B00273
:101F1000938759FFB3853541B355B400B314F90025
:101F2000CD8C3315F4009395C400F2406244137ACB
:101F3000FA7F520AB181B3E745012A87D244424968
:101F4000B249224A3A85BE85056182809700000029
:101F5000E78000139309050251BF938559FDB3141F
:101F6000B4000145C9B79307604363D9470313869B
:101F700089032285CA8597000000E780C00DC98DBE
:101F80002146B334B0002285CA8533063641970016
:101F90000000E780A00933E4A4002E89A147228530
:101FA00063D437039307700263C637079305800233
:101FB000938789FFB38535413319F900B355B400D0
:101FC00033E925013315F400B70780FFFD17B3751A
:101FD000F9009377750081CF9377F50011476388F7
:101FE000E7009307450033B5A700AA953E85939770
:101FF000850063DA0700B70780FFFD17130AF04377
:10200000FD8D330A3A410D819397D5015D8D93D4AF
:10201000350011BF138989FD3319240101456DB7BE
:1020200081440145014A01B701CE93070002918F17
:102030006349F000130506FE014733D5A500BA85B4
:10204000828033D7C5003355C500B395F5004D8D5B
:10205000FDB701CE93070002918F6349F00093050D
:1020600006FE0147B315B5003A8582803317C500D7
:10207000B395C5003355F500C98DFDB7C1676376CB
:10208000F5029307F00FB3B7A7008E0713070002FE
:102090001D8FB357F50017E5FFFF1305252AAA97F3
:1020A00003C507003305A740828037070001C147F9
:1020B000E36EE5FCE147D9BFAA85814601460145AB
:1020C00017030000670043134111814522C406C66F
:1020D0002A8497000000E780401997E7FF1793874D
:1020E000673588435C5D91C38297228597F0FFFF37
:1020F000E78000D0411122C497070000938747234F
:10210000170400001304C4221D8C06C626C20984CD
:1021100011C893142400F114BE949C407D14F11452
:10212000829765FCB2402244924441018280411171
:1021300022C44AC0170400001304441F17090000FA
:102140001309C91E3309894006C626C213592940FE
:102150006309090081441C40850411048297E31C33
:1021600099FE170400001304641C170900001309EA
:10217000291C330989401359294063090900814406
:102180001C40850411048297E31C99FEB24022444E
:10219000924402494101828097E7FF1793874729BC
:1021A000B2862E86AA858843170300006700830045
:1021B000AE87411122C4B2852A8436863E8506C682
:1021C00097E7FF1723AA072697F0FFFFE78080CD48
:1021D000FD576306F500B24022444101828097E733
:1021E000FF17938767259C43FDD71CC0B24022444C
:1021F0004101828097E7FF179387C723984383277E
:102200008714A1C3D8437D48634DE8041318270001
:102210001DC1338307012324C30883A887180546FB
:102220003316E600B3E8C80023A417192324D310FB
:102230008946630DD5000507D8C3C2978CC70145F1
:1022400082809307C7142324F7146DBF83A6C71891
:102250000507D8C3558E23A6C718C2978CC701455A
:1022600082807D558280797197E7FF179387871C5D
:1022700062C403AC07004ECE52CC56CA5AC806D62A
:1022800022D426D24AD05EC6AA8A2E8B054AFD5990
:1022900003298C1463040902832449001384F4FF86
:1022A000634E04008A04CA9463060B0283A7441099
:1022B000638267037D14F114E31834FFB250225493
:1022C00092540259F249624AD24A424BB24B224CD2
:1022D0004561828083274900D440FD1763808704CD
:1022E00023A20400E1DA8327891833178A00832B9D
:1022F0004900F98F99EB829683274900E39A77F991
:1023000083278C14E38827FB61B78327C91883A52B
:1023100044087D8F19E756858296F9BF23228900EC
:08232000D1B72E858296C9BFDA
:042328007C04000829
:10232C0000000000EC02002054030020BC0300203D
:10233C000000000000000000000000000000000091
:10234C000000000000000000000000000000000081
:10235C000000000000000000000000000000000071
:10236C000000000000000000000000000000000061
:10237C000000000000000000000000000000000051
:10238C000000000000000000000000000000000041
:10239C000000000000000000000000000000000031
:1023AC000000000000000000000000000000000021
:1023BC000000000000000000000000000000000011
:1023CC000000000000000000010000000000000000
:1023DC000E33CDAB34126DE6ECDE05000B000000C5
:1023EC0000000000000000000000000000000000E1
:1023FC0000000000000000000000000000000000D1
:10240C0000000000000000000000000000000000C0
:10241C0000000000000000000000000000000000B0
:10274C00000000000000000000F36F0600000020F5
:04275C000000002059
:040000050800015C92
:00000001FF
